:020000040800F2
:1000000000800120250D0008C90A0008D10A000857
:10001000D90A0008E10A0008E90A00080000000007
:10002000000000000000000000000000F10A0008CD
:10003000FF0A0008000000000D0B00081B0B000861
:10004000750D0008750D0008750D0008750D000888
:10005000750D0008750D0008750D0008750D000878
:10006000270B0008470B0008670B0008750D0008F8
:10007000750D0008750D0008750D0008750D000858
:10008000750D0008750D0008750D000800000000D2
:10009000000000000000000000000000870B0008C6
:1000A000750D0008750D0008750D0008750D000828
:1000B000750D0008750D0008750D0008750D000818
:1000C000750D0008750D0008750D0008750D000808
:1000D000750D0008750D0008750D00080000000082
:1000E000750D0008750D0008750D00080000000072
:1000F000000000000000000000000000750D000876
:1001000000000000750D0008750D0008750D000851
:1001100000000000000000000000000000000000DF
:10012000750D0008750D0008750D0008750D0008A7
:10013000750D000800000000000000000000000035
:10014000000000000000000000000000750D000825
:10015000750D0008750D0008750D0008750D000877
:10016000750D0008750D000800000000000000007B
:10017000000000000000000000000000000000007F
:1001800000000000750D00080000000000000000E5
:04019000750D0008E1
:1001A00010B5054C237833B9044B13B10448AFF3B1
:1001B00000800123237010BDA0000020000000007B
:1001C000DC32000808B5034B1BB103490348AFF309
:1001D000008008BD00000000A4000020DC32000800
:1001E00001F0FF01102A2BDB10F0070F08D010F8E8
:1001F000013B013A8B422DD010F0070F42B3F6D1EC
:10020000F0B441EA012141EA014122F007047FF004
:1002100000070023F0E80256083C85EA010586EA5B
:10022000010685FA47F5A3FA87F586FA47F6A5FA97
:1002300087F68EB9EED1F0BC01F0FF0102F00702A3
:1002400032B110F8013B013A83EA010313B1F8D14E
:100250000020704701387047002D06BF354603382F
:10026000073815F0010F07D1013015F4807F02BF68
:10027000013015F4C03F0130F0BC0138704700BFB9
:1002800080B485B000AF78607B6803F00703FB6043
:100290000C4BDB68BB60BA684FF6FF031340BB60D2
:1002A000FB681A02BB68134343F0BF6343F4003397
:1002B000BB60044ABB68D36000BF1437BD465DF81D
:1002C000047B704700ED00E080B400AF044BDB68B6
:1002D0001B0A03F007031846BD465DF8047B704710
:1002E00000ED00E080B483B000AF0346FB7197F9E6
:1002F0000730002B0BDBFB7903F01F02074997F94E
:1003000007305B09012000FA02F241F8232000BF08
:100310000C37BD465DF8047B704700BF00E100E08C
:1003200080B483B000AF03463960FB7197F90730A2
:10033000002B0ADB3B68DAB20C4997F9073012014F
:10034000D2B20B4483F800230AE03B68DAB20849D2
:10035000FB7903F00F03043B1201D2B20B441A766F
:1003600000BF0C37BD465DF8047B704700E100E03C
:1003700000ED00E080B489B000AFF860B9607A6049
:10038000FB6803F00703FB61FB69C3F10703042B60
:1003900028BF0423BB61FB690433062B02D9FB6928
:1003A000033B00E000237B614FF0FF32BB6902FAA0
:1003B00003F3DA43BB681A407B699A404FF0FF3180
:1003C0007B6901FA03F3D9437B680B40134318465A
:1003D0002437BD465DF8047B7047000080B400AF51
:1003E000054B1B68044A43F00103136000BFBD4680
:1003F0005DF8047B704700BF0038024080B400AF56
:10040000064B1B6803F00203022B0CBF01230023E1
:10041000DBB21846BD465DF8047B704700380240E9
:1004200080B483B000AF7860074B1B6823F0F802FC
:100430007B68DB00044913430B6000BF0C37BD46EB
:100440005DF8047B704700BF0038024080B483B081
:1004500000AF7860064B9B6823F0030204497B6879
:1004600013438B6000BF0C37BD465DF8047B7047BB
:100470000038024080B400AF044B9B6803F00C03CB
:100480001846BD465DF8047B704700BF0038024047
:1004900080B483B000AF7860064B9B6823F0F00215
:1004A00004497B6813438B6000BF0C37BD465DF881
:1004B000047B70470038024080B483B000AF78609E
:1004C000064B9B6823F4E05204497B6813438B601E
:1004D00000BF0C37BD465DF8047B70470038024012
:1004E00080B483B000AF7860064B9B6823F4604211
:1004F00004497B6813438B6000BF0C37BD465DF831
:10050000047B70470038024080B483B000AF78604D
:10051000074BD3F88C3023F0807205497B68134376
:10052000C1F88C3000BF0C37BD465DF8047B7047C6
:100530000038024080B485B000AF7860084B1A6B79
:1005400007497B6813430B63054B1A6B7B681340A9
:10055000FB60FB6800BF1437BD465DF8047B704745
:100560000038024080B485B000AF7860084B1A6C48
:1005700007497B6813430B64054B1A6C7B68134077
:10058000FB60FB6800BF1437BD465DF8047B704715
:100590000038024080B485B000AF7860084B5A6CD8
:1005A00007497B6813434B64054B5A6C7B681340C7
:1005B000FB60FB6800BF1437BD465DF8047B7047E5
:1005C0000038024080B487B000AF78603960174AC5
:1005D0003B68DBB2023352F823203B681B0CDB4341
:1005E00002EA03013B681B0C3B613B6993FAA3F3EE
:1005F000FB60FB687B617B69002B01D1202303E05A
:100600007B69B3FA83F3DBB21A467B6803FA02F222
:1006100006483B68DBB20A43023340F8232000BFA0
:100620001C37BD465DF8047B704700BF00380140B1
:1006300080B483B000AF7860064B1B6823F00702DC
:1006400004497B6813430B6000BF0C37BD465DF85F
:10065000047B7047003C024080B400AF044B1B6831
:1006600003F007031846BD465DF8047B704700BFE2
:10067000003C024080B483B000AF7860064B1B683A
:1006800023F4404204497B6813430B6000BF0C37DE
:10069000BD465DF8047B70470070004080B48BB0AD
:1006A00000AFF860B9607A60FB681A68BB687B616C
:1006B0007B6993FAA3F33B613B69BB61BB69002B88
:1006C00001D1202303E0BB69B3FA83F3DBB25B0003
:1006D000032101FA03F3DB431A40BB683B623B6A28
:1006E00093FAA3F3FB61FB697B627B6A002B01D168
:1006F000202303E07B6AB3FA83F3DBB25B00796803
:1007000001FA03F31A43FB681A6000BF2C37BD4699
:100710005DF8047B704780B48BB000AFF860B960BF
:100720007A60FB68DA68BB687B617B6993FAA3F344
:100730003B613B69BB61BB69002B01D1202303E016
:10074000BB69B3FA83F3DBB25B00032101FA03F365
:10075000DB431A40BB683B623B6A93FAA3F3FB613D
:10076000FB697B627B6A002B01D1202303E07B6A5B
:10077000B3FA83F3DBB25B00796801FA03F31A433F
:10078000FB68DA6000BF2C37BD465DF8047B70471C
:1007900080B483B000AF786039603B681A047B682E
:1007A0009A6100BF0C37BD465DF8047B704780B589
:1007B00000AF4FF48040FFF7EDFE4FF08050FFF7A1
:1007C000D1FE0320FFF75CFDFFF77EFD034600220C
:1007D0000F211846FFF7CEFD034619464FF0FF30B4
:1007E000FFF79EFD00F008F800F040F800F0E0FD93
:1007F00000F022FEFCE7000080B500AF0020FFF70C
:1008000017FF00BFFFF728FF0346002BFAD14FF474
:100810000040FFF72FFF1020FFF702FEFFF7DEFD7D
:1008200000BFFFF7EBFD0346012BFAD10020FFF7D5
:100830002FFE0020FFF740FE0020FFF751FE0020B2
:10084000FFF704FE00BFFFF715FE0346002BFAD1A9
:10085000054800F08FFD044800F09AFD0020FFF7E6
:1008600053FE00BF80BD00BF0024F40080B588B0F7
:1008700000AF07F1180300221A605A603B460022BD
:100880001A605A609A60DA601A615A610120FFF7B3
:1008900051FE0220FFF74EFE82217448FFF778FFD9
:1008A0004FF473417248FFF773FF02233B6001234B
:1008B0007B600023BB600123FB6000233B613B4660
:1008C00019466A4800F0BAFC80233B6001237B6034
:1008D0000023BB600023FB6000233B613B461946BD
:1008E000624800F0ABFC4FF473433B6001237B6034
:1008F0000023BB600023FB6000233B613B4619469D
:100900005B4800F09BFC4FF070610020FFF75AFE3F
:100910004FF070410020FFF755FE56490020FFF7C9
:1009200051FE55490020FFF74DFE0423BB61012312
:100930003B7700237B770223BB7707F11803184628
:1009400000F0B2FA0823BB6101233B7700237B77D9
:100950000223BB7707F11803184600F0A5FA10230D
:10096000BB6101233B7700237B770223BB7707F131
:100970001803184600F098FA2023BB6101233B7747
:1009800000237B770223BB7707F11803184600F09A
:100990008BFA012204213548FFF7BDFE0122082110
:1009A0003248FFF7B8FE012210213048FFF7B3FEAE
:1009B000012220212D48FFF7AEFE002204212B4802
:1009C000FFF76CFE002208212848FFF767FE00228F
:1009D00010212648FFF762FE002220212348FFF75E
:1009E0005DFEFFF771FC0346002200211846FFF769
:1009F000C1FC034619460820FFF792FC0820FFF7C8
:100A000071FCFFF761FC0346002200211846FFF746
:100A1000B1FC034619460920FFF782FC0920FFF7C5
:100A200061FCFFF751FC0346002200211846FFF746
:100A3000A1FC034619460A20FFF772FC0A20FFF7C3
:100A400051FCFFF741FC0346002200211846FFF746
:100A500091FC034619461720FFF762FC1720FFF7A9
:100A600041FC00BF2037BD4680BD00BF00000240F2
:100A70000004024001000F000100F00080B483B0C8
:100A800000AF7860074B5A697B6813407A689A42D6
:100A90000CBF01230023DBB218460C37BD465DF8BE
:100AA000047B7047003C014080B483B000AF7860A5
:100AB000044A7B68536100BF0C37BD465DF8047B78
:100AC000704700BF003C014080B400AF00BFFDE7AD
:100AD00080B400AF00BFFDE780B400AF00BFFDE70A
:100AE00080B400AF00BFFDE780B400AF00BFFDE7FA
:100AF00080B400AF00BFBD465DF8047B704780B492
:100B000000AF00BFBD465DF8047B704780B400AF06
:100B100000BFBD465DF8047B704780B500AF01F0B3
:100B2000AFF800BF80BD80B500AF0420FFF7A6FF7F
:100B30000346002B05D00420FFF7B6FF042000F089
:100B4000ADFE00BF80BD80B500AF0820FFF796FF67
:100B50000346002B05D00820FFF7A6FF082000F071
:100B60009DFE00BF80BD80B500AF1020FFF786FF5F
:100B70000346002B05D01020FFF796FF102000F051
:100B80008DFE00BF80BD80B500AF2020FFF776FF4F
:100B90000346002B05D02020FFF786FF202000F021
:100BA0007DFE00BF80BD000080B586B000AF7860DC
:100BB000144A154BD31A7B617B693B61134B1B684D
:100BC000002B02D1114B124A1A60104B1A687B6835
:100BD00013443A699A4207D201F002FF03460C22FD
:100BE0001A604FF0FF3309E0084B1B68FB60074BAE
:100BF0001A687B681344054A1360FB681846183767
:100C0000BD4680BD0080012000040000BC00002023
:100C10003802002080B400AF064BD3F88830054A74
:100C200043F47003C2F8883000BFBD465DF8047B12
:100C3000704700BF00ED00E080B487B000AF344BD8
:100C40009B6803F00C033B613B69082B11D03B69A7
:100C5000082B44D83B69002B03D03B69042B04D0FC
:100C60003DE02C4B2C4A1A603DE02A4B2B4A1A607F
:100C700039E0274B5B689B0D03F00103FB60244BBD
:100C80005B6803F03F03BB60FB68002B0CD0234A7A
:100C9000BB68B2FBF3F31E4A52689209C2F3080222
:100CA00002FB03F37B610BE01B4ABB68B2FBF3F36F
:100CB000174A52689209C2F3080202FB03F37B61F0
:100CC000134B5B681B0C03F0030301335B007B6079
:100CD0007A697B68B2FBF3F30E4A136003E00D4BB5
:100CE0000D4A1A6000BF0A4B9B681B0903F00F03F3
:100CF0000B4AD35C3B61074B1A683B6922FA03F34A
:100D0000044A136000BF1C37BD465DF8047B704782
:100D100000380240000000200024F40040787D01EB
:100D200088330008DFF834D0FFF774FF0C480D4912
:100D30000D4A002302E0D458C4500433C4188C4236
:100D4000F9D30A4A0A4C002301E013600432A2429C
:100D5000FBD301F04BFEFFF72AFD70470080012016
:100D600000000020A0000020DC330008A0000020CC
:100D700034020020FEE7000080B483B000AF78604A
:100D8000054B1A6804497B6813430B6000BF0C379E
:100D9000BD465DF8047B7047003C014080B483B0E1
:100DA00000AF7860064B1A687B68DB430449134048
:100DB0000B6000BF0C37BD465DF8047B704700BF79
:100DC000003C014080B483B000AF7860054B5A68A6
:100DD00004497B6813434B6000BF0C37BD465DF888
:100DE000047B7047003C014080B483B000AF786062
:100DF000064B5A687B68DB43044913404B6000BFD5
:100E00000C37BD465DF8047B704700BF003C0140D5
:100E100080B483B000AF7860054B9A6804497B6862
:100E200013438B6000BF0C37BD465DF8047B7047F1
:100E3000003C014080B483B000AF7860064B9A68F4
:100E40007B68DB43044913408B6000BF0C37BD4611
:100E50005DF8047B704700BF003C014080B483B064
:100E600000AF7860054BDA6804497B681343CB60B8
:100E700000BF0C37BD465DF8047B7047003C014065
:100E800080B483B000AF7860064BDA687B68DB43E0
:100E900004491340CB6000BF0C37BD465DF8047BAE
:100EA000704700BF003C014080B584B000AF78605F
:100EB0000023FB737B681B79002B65D07B681B6864
:100EC000002B6BD07B685B79022B1CD0022B25DCBE
:100ED000002B02D0012B0BD020E07B681B6818464A
:100EE000FFF782FF7B681B681846FFF745FF18E095
:100EF0007B681B681846FFF751FF7B681B68184624
:100F0000FFF760FF0DE07B681B681846FFF734FFB2
:100F10007B681B681846FFF755FF02E00123FB734F
:100F200000BF7B689B79002B38D07B689B79032BB3
:100F30001CD0032B25DC012B02D0022B0BD020E090
:100F40007B681B681846FFF79BFF7B681B68184689
:100F5000FFF75EFF22E07B681B681846FFF76AFF19
:100F60007B681B681846FFF779FF17E07B681B68F2
:100F70001846FFF74DFF7B681B681846FFF76EFFAA
:100F80000CE00123FB7309E07B681B681846FFF740
:100F900005FF7B681B681846FFF726FFFB7B18469A
:100FA0001037BD4680BD80B48BB000AFF860B9602B
:100FB0007A60FB681A68BB687B617B6993FAA3F36C
:100FC0003B613B69BB61BB69002B01D1202303E07E
:100FD000BB69B3FA83F3DBB25B00032101FA03F3CD
:100FE000DB431A40BB683B623B6A93FAA3F3FB61A5
:100FF000FB697B627B6A002B01D1202303E07B6AC3
:10100000B3FA83F3DBB25B00796801FA03F31A43A6
:10101000FB681A6000BF2C37BD465DF8047B704743
:1010200080B485B000AFF860B9607A60FB685A6838
:10103000BB68DB431A40BB68796801FB03F31A43C2
:10104000FB685A6000BF1437BD465DF8047B7047EB
:1010500080B48BB000AFF860B9607A60FB689A68C2
:10106000BB687B617B6993FAA3F33B613B69BB611E
:10107000BB69002B01D1202303E0BB69B3FA83F3E2
:10108000DBB25B00032101FA03F3DB431A40BB68C8
:101090003B623B6A93FAA3F3FB61FB697B627B6A69
:1010A000002B01D1202303E07B6AB3FA83F3DBB288
:1010B0005B00796801FA03F31A43FB689A6000BF8A
:1010C0002C37BD465DF8047B704780B48BB000AF11
:1010D000F860B9607A60FB68DA68BB687B617B693D
:1010E00093FAA3F33B613B69BB61BB69002B01D160
:1010F000202303E0BB69B3FA83F3DBB25B00032177
:1011000001FA03F3DB431A40BB683B623B6A93FA84
:10111000A3F3FB61FB697B627B6A002B01D1202377
:1011200003E07B6AB3FA83F3DBB25B00796801FA10
:1011300003F31A43FB68DA6000BF2C37BD465DF845
:10114000047B704780B48BB000AFF860B9607A6000
:10115000FB681A6ABB687B617B6993FAA3F33B6106
:101160003B69BB61BB69002B01D1202303E0BB6954
:10117000B3FA83F3DBB29B000F2101FA03F3DB43E5
:101180001A40BB683B623B6A93FAA3F3FB61FB69BD
:101190007B627B6A002B01D1202303E07B6AB3FAD8
:1011A00083F3DBB29B00796801FA03F31A43FB680F
:1011B0001A6200BF2C37BD465DF8047B704780B4CF
:1011C0008BB000AFF860B9607A60FB685A6ABB68A0
:1011D0001B0A7B617B6993FAA3F33B613B69BB61AB
:1011E000BB69002B01D1202303E0BB69B3FA83F371
:1011F000DBB29B000F2101FA03F3DB431A40BB680B
:101200001B0A3B623B6A93FAA3F3FB61FB697B62B7
:101210007B6A002B01D1202303E07B6AB3FA83F3BE
:10122000DBB29B00796801FA03F31A43FB685A6248
:1012300000BF2C37BD465DF8047B704780B58AB08F
:1012400000AF7860396000237B6200233B623B681B
:101250001B68BB61BB6993FAA3F37B617B69FB618C
:10126000FB69002B01D1202303E0FB69B3FA83F370
:10127000DBB27B6257E03B681A6801217B6A01FAA6
:1012800003F313403B623B6A002B49D03B685B6829
:10129000012B03D03B685B68022B0DD13B689B6838
:1012A0001A46396A7868FFF7D3FE3B68DB681A464E
:1012B000396A7868FFF7B4FE3B681B691A46396AD9
:1012C0007868FFF702FF3B685B68022B21D13B6A1D
:1012D000FB60FB6893FAA3F3BB60BB683B613B69AF
:1012E000002B01D1202303E03B69B3FA83F3DBB287
:1012F000072B07D83B685B691A46396A7868FFF79D
:1013000021FF06E03B685B691A46396A7868FFF797
:1013100056FF3B685B681A46396A7868FFF743FEF8
:101320007B6A01337B623B681A687B6A22FA03F3AB
:10133000002BA0D1002318462837BD4680BD0000F1
:1013400080B483B000AF786039607A683B68B2FBE4
:10135000F3F3074A013B5360054B00229A60044BAC
:1013600005221A6000BF0C37BD465DF8047B70474C
:1013700010E000E080B582B000AF78604FF47A7181
:101380007868FFF7DDFF00BF0837BD4680BD00006D
:1013900080B483B000AF7860044A7B68136000BFFC
:1013A0000C37BD465DF8047B704700BF000000208D
:1013B00080B500AF00F04EFC00F050FA00F0A0FB4A
:1013C00000F06BFB144B00221A7000F067FC034620
:1013D000124A1360124B00221A80124B00221A701C
:1013E000114B1C221A80114B1C221A8000F06CFB3E
:1013F00000F0E2FA03461A460D4B1A700C4B1B78AC
:10140000002B01D000F0E2FA0A4B01221A7000F022
:1014100065F900BF80BD00BFC0000020C4000020EF
:10142000C8000020CA0000200400002006000020A0
:10143000CB000020CC00002080B582B000AF00F0CF
:10144000A5FA0346FB71FB79184600F00BF800F093
:10145000A1F800F009F900F041F900BF0837BD46D6
:1014600080BD000080B582B000AF0346FB71FB7900
:10147000002B7CD0434B1B78022B31D0022B6DDC30
:10148000002B02D0012B0CD068E0FB7903F00103A4
:10149000002B6ED03B4B01221A703B4B01221A707D
:1014A00067E0FB7903F00103002B08D0354B0022E5
:1014B0001A7000F009FB344B01221A705BE0FB79D3
:1014C00003F00803002B56D0304BB3F90020304B0B
:1014D0001A802C4B02221A702B4B01221A704AE000
:1014E000FB7903F00803002B0BD0294BB3F9002044
:1014F000264B1A80234B01221A70234B01221A70AB
:101500003BE0FB7903F00203002B10D0204BB3F932
:101510000030452B0BDC1E4BB3F900309BB201337E
:101520009BB21AB21A4B1A80174B01221A70FB7920
:1015300003F00403002B20D0154BB3F90030002B2F
:101540001BDD134BB3F900309BB2013B9BB21AB2C7
:101550000F4B1A800C4B01221A700EE0094B00222F
:101560001A7000F0B1FA084B01221A7006E000BFB1
:1015700004E000BF02E000BF00E000BF0837BD4646
:1015800080BD00BFC0000020CC000020040000206F
:101590000600002080B582B000AF2E4B1B78002BD8
:1015A0001FD000F021FA00F037FA0346002B10D0CC
:1015B000BB1D184600F03AFA0346002B09D0B7F9D4
:1015C0000620254B1A80254B01221A70244B01223C
:1015D0001A7000F03BFA0346002B02D11F4B002289
:1015E0001A70204B1B684FF4FA71184600F0B0FBDC
:1015F0000346002B2AD000F051FB0346194A136022
:10160000144B1B78002B05D100F0D6F903461A467F
:10161000104B1A700F4B1B78002B03D10F4B00227D
:101620001A7014E000F0EEF90346002B0FD100F021
:10163000CDF90346002B0AD1064B00221A70074B46
:1016400000221A70064B01221A7000E000BF083712
:10165000BD4680BDCB000020C8000020CA0000208D
:10166000CC000020C400002080B582B000AF002371
:10167000FB7100F039FA0346BB71134B1B78002B4A
:101680000DD0124B1B78002B09D0114BB3F9002061
:10169000104BB3F900309A4201DD0123FB71FA7956
:1016A000BB799A420BD0FB79002B02D000F0FCF9F9
:1016B00001E000F009FA084B01221A7000E000BFB7
:1016C0000837BD4680BD00BFC0000020CA00002012
:1016D000C800002004000020CC00002080B590B09D
:1016E00002AF4E4B1B78002B00F094804C4B1B78C4
:1016F000002B02D0022B1CD046E04A4B1B78002B5B
:1017000009D0494BB3F9003007F11800474A1821B6
:1017100001F030F906E007F11803454A1821184690
:1017200001F028F93B46434A1821184601F022F9F6
:1017300061E0414B1B88FB86404B3B63394B1B7878
:10174000002B10D0384BB3F900301A46B7F93630B9
:1017500007F1180001933B6B00931346384A182198
:1017600001F008F909E0B7F9363007F118000093E5
:101770003B6B344A182101F0FDF83B46324A1821F0
:10178000184601F0F7F836E0304B1B88FB86304BEB
:101790003B63244B1B78002B10D0234BB3F9003054
:1017A0001A46B7F9363007F1180001933B6B0093E6
:1017B0001346234A182101F0DDF809E0B7F9363065
:1017C00007F1180000933B6B1E4A182101F0D2F874
:1017D00000F08AF90346002B06D03B461D4A18212B
:1017E000184601F0C7F805E03B461B4A1821184689
:1017F00001F0C0F800BF07F118031946002000F0FF
:1018000089F93B461946012000F084F9034B002278
:101810001A7000E000BF3837BD4680BDCC00002004
:10182000C0000020CA000020C8000020F4320008D8
:101830000433000814330008060000202433000895
:101840002C33000840330008503300080400002007
:1018500060330008683300087833000880B400AFB4
:10186000094B00221A70094B00221A60084B002213
:101870001A60084B00221A60074B00221A6000BF52
:10188000BD465DF8047B7047CD000020D0000020ED
:10189000D4000020D8000020DC00002080B584B0F7
:1018A00000AF786000F0FAF9F8607B68042B15D17E
:1018B000314B1B68002B05D02F4B1B68FA68D31ADD
:1018C000632B55D92D4B1B78DBB243F00103DAB201
:1018D0002A4B1A70284AFB68136049E07B68082B82
:1018E00015D1274B1B68002B05D0254B1B68FA68C8
:1018F000D31A632B3CD9214B1B78DBB243F0020394
:10190000DAB21E4B1A701E4AFB68136030E07B6827
:10191000102B15D11B4B1B68002B05D0194B1B68D6
:10192000FA68D31A632B23D9144B1B78DBB243F02C
:101930000403DAB2114B1A70124AFB68136017E005
:101940007B68202B14D1104B1B68002B05D00E4B4D
:101950001B68FA68D31A632B0AD9084B1B78DBB2D1
:1019600043F00803DAB2054B1A70074AFB681360AC
:1019700000BF1037BD4680BDD0000020CD00002044
:10198000D4000020D8000020DC00002080B483B008
:1019900000AF72B600BF074B1B78FB71054B0022EE
:1019A0001A7062B600BFFB7918460C37BD465DF869
:1019B000047B7047CD00002080B500AF024800F0E6
:1019C0009CFC0346184680BD0800002080B500AF8F
:1019D00000F064F903461946024800F027FD03466B
:1019E000184680BD0800002080B500AF00F056F911
:1019F00003461946024800F048FD00BF80BD00BF05
:101A00000800002080B500AF024800F071FD0346D9
:101A1000184680BD0800002080B500AF024800F0E5
:101A20007DFD0346184680BD0800002080B582B0C9
:101A300000AF78607968044800F081FD03461846DD
:101A40000837BD4680BD00BF0800002080B500AF4C
:101A5000024800F096FD0346184680BD08000020AD
:101A600080B483B000AF786039607B683A689A616F
:101A700000BF0C37BD465DF8047B704780B483B06F
:101A800000AF786039603B681A047B689A6100BFD8
:101A90000C37BD465DF8047B704780B500AF00F0A1
:101AA00013F800BF80BD000080B500AF802104485E
:101AB000FFF7D6FF034B01221A7000BF80BD00BFA5
:101AC00000000240E000002080B500AF8021044803
:101AD000FFF7D4FF034B00221A7000BF80BD00BF88
:101AE00000000240E000002080B400AF034B1B78F0
:101AF0001846BD465DF8047B704700BFE00000203B
:101B000080B500AF024800F06AFD00BF80BD00BF95
:101B10001C00002080B582B000AF03463960FB7125
:101B2000FB793A681946034800F0E1FD00BF083729
:101B3000BD4680BD1C00002080B400AF044BDB68B4
:101B40001B0A03F007031846BD465DF8047B704787
:101B500000ED00E080B483B000AF03463960FB7154
:101B600097F90730002B0ADB3B68DAB20C4997F98A
:101B700007301201D2B20B4483F800230AE03B681D
:101B8000DAB20849FB7903F00F03043B1201D2B229
:101B90000B441A7600BF0C37BD465DF8047B7047D6
:101BA00000E100E000ED00E080B489B000AFF86033
:101BB000B9607A60FB6803F00703FB61FB69C3F15E
:101BC0000703042B28BF0423BB61FB690433062BE6
:101BD00002D9FB69033B00E000237B614FF0FF3239
:101BE000BB6902FA03F3DA43BB681A407B699A4087
:101BF0004FF0FF317B6901FA03F3D9437B680B4057
:101C0000134318462437BD465DF8047B7047000037
:101C100080B582B000AF78607B68013BB3F1807F14
:101C200001D301230FE00A4A7B68013B53600F2177
:101C30004FF0FF30FFF78EFF054B00229A60044BF8
:101C400007221A60002318460837BD4680BD00BF32
:101C500010E000E080B500AF074B1B78002B09D1E6
:101C6000064B00221A60044B01221A7000F084F81F
:101C700000F0B2F800BF80BDE8000020E4000020C2
:101C800080B400AF044B1B680133034A136000BFEC
:101C9000BD465DF8047B7047E400002080B400AFCF
:101CA000034B1B681846BD465DF8047B704700BFB8
:101CB000E400002080B582B000AF786006E04FF409
:101CC0007A7000F00BF87B68013B7B607B68002B2F
:101CD000F5D100BF00BF0837BD4680BD80B584B0D8
:101CE00000AF78607B68002B24D0144B1B78002B4E
:101CF00001D1FFF7AFFF124B1B78002B16D0114B11
:101D00001B68114AA2FB03239A0C7B6802FB03F3B6
:101D1000FB600E4B5B68BB6000E000BF0B4B5A687A
:101D2000BB68D31AFA689A42F7D804E0786800F0E2
:101D30008BF800E000BF1037BD4680BDE8000020F2
:101D4000E90000200000002083DE1B43001000E0BB
:101D500080B582B000AF78603960FFF79FFF024620
:101D60007B68D31A3A689A4201D8012300E0002325
:101D700018460837BD4680BD80B582B000AF144B11
:101D80001B68002B01D1FEF757FF114B1B68114A4E
:101D9000A2FB03239B097B607B68002B02D14FF4DD
:101DA0007A537B607868FFF733FFFFF7C5FE034681
:101DB00000220F211846FFF7F7FE034619464FF0A1
:101DC000FF30FFF7C7FE00BF0837BD4680BD00BF2C
:101DD00000000020D34D621080B483B000AF174BD9
:101DE00000221A70164BDB68154A43F08073D360EB
:101DF000144B00225A60134B1B68124A43F0010334
:101E00001360104B5B683B6000237B6003E000BF06
:101E10007B6801337B607B68B3F57A7FF7D3094B2E
:101E20005B683A689A4202D0044B01221A7000BFE4
:101E30000C37BD465DF8047B704700BFE900002009
:101E4000F0ED00E0001000E080B485B000AF7860F5
:101E5000154B1B68154AA2FB03239B0CFB60FB6818
:101E6000134AA2FB03239B08FB60FB68002B10D1E5
:101E70000123FB600DE00023BB6003E000BFBB68F3
:101E80000133BB60BB68FA689A42F7D87B68013BB4
:101E90007B607B68002BEED100BF00BF1437BD46CE
:101EA0005DF8047B704700BF0000002083DE1B4309
:101EB000ABAAAAAA80B483B000AF786039607B680F
:101EC0001A693B6813403A689A420CBF0123002309
:101ED000DBB218460C37BD465DF8047B704780B412
:101EE00083B000AF786039603B681A047B689A6100
:101EF00000BF0C37BD465DF8047B704780B485B0E9
:101F000000AF78600023FB7302E0FB7B0133FB73BF
:101F1000FB7B7A6822FA03F303F00103002B02D162
:101F2000FB7B0F2BF1D9FB7B18461437BD465DF8C0
:101F3000047B704780B584B000AF78607B685B68D5
:101F40001846FFF7DBFF0346FB73FB7B5B00BB60C0
:101F50007B681B6819680322BB6802FA03F3DA4343
:101F60007B681B680A401A607B681B68D96803227B
:101F7000BB6802FA03F3DA437B681B680A40DA6045
:101F80007B681B68D9680122BB689A407B681B6824
:101F90000A43DA6000BF1037BD4680BD80B584B00B
:101FA00000AF78607B685B681846FFF7A7FF0346C1
:101FB000FB73FB7B5B00BB607B681A687B685B68BC
:101FC00019461046FFF78BFF7B681B685968FB7B3F
:101FD00001229A407B681B680A435A607B681B6831
:101FE00099680322BB6802FA03F3DA437B681B6833
:101FF0000A409A607B681B68D9680322BB6802FAB2
:1020000003F3DA437B681B680A40DA607B681B686D
:1020100019680322BB6802FA03F3DA437B681B6882
:102020000A401A607B681B6819680122BB689A40E5
:102030007B681B680A431A6000BF1037BD4680BD2D
:1020400080B582B000AF78607B681A687B685B6897
:1020500019461046FFF72EFF0346002B01D001233F
:1020600000E0002318460837BD4680BD80B584B027
:1020700000AF78607868FFF75DFF0520FFF72EFE60
:102080007868FFF78BFF4FF4F070FFF727FE786852
:10209000FFF750FF4620FFF721FE7868FFF7D0FFDB
:1020A0000346002B01D1012300E00023FB734FF412
:1020B000CD70FFF713FEFB7B18461037BD4680BD81
:1020C00080B582B000AF78600B46FB70FB78002BC8
:1020D0000CD07868FFF762FF0620FFF7FFFD7868F5
:1020E000FFF728FF4020FFF7F9FD0BE07868FFF7C6
:1020F00055FF3C20FFF7F2FD7868FFF71BFF0A2031
:10210000FFF7ECFD00BF0837BD4680BD80B584B049
:1021100000AF78607868FFF741FF0620FFF7DEFD2B
:102120007868FFF707FF0920FFF7D8FD7868FFF709
:1021300087FF0346FB733720FFF7D0FDFB7B184674
:102140001037BD4680BD80B584B000AF78600B46C7
:10215000FB700023FB730DE0FB7803F00103DBB29F
:1021600019467868FFF7ACFFFB785B08FB70FB7BD8
:102170000133FB73FB7B072BEED900BF00BF103789
:10218000BD4680BD80B584B000AF78600023BB73CE
:102190000023FB7310E07868FFF7B8FF0346002BBD
:1021A00007D0FB7B012202FA03F3DAB2BB7B1343B5
:1021B000BB73FB7B0133FB73FB7B072BEBD9BB7B37
:1021C00018461037BD4680BD80B485B000AF78603A
:1021D0000B46FB700023FB730023BB7322E0BB7B29
:1021E0007A6813441A78FB7B5340FB7300237B739C
:1021F00012E0FB7B03F00103002B07D0FB7B5B08A5
:10220000DBB283F07303DB43FB7302E0FB7B5B0811
:10221000FB737B7B01337B737B7B072BE9D9BB7B18
:102220000133BB73BA7BFB789A42D8D3FB7B184649
:102230001437BD465DF8047B704780B483B000AFAF
:102240000346FB80B7F90630002B08DBB7F90630F0
:102250000833002B00DA0F331B111BB207E0B7F96C
:102260000630083B002B00DA0F331B111BB2184657
:102270000C37BD465DF8047B704790B585B000AF64
:10228000786039607B68002B02D03B68002B01D15D
:1022900000232EE07868FFF7E9FE0346002B01D10A
:1022A000002326E0CC217868FFF74DFFBE21786837
:1022B000FFF749FF0023FB730AE0FB7B3A68D41861
:1022C0007868FFF75FFF03462370FB7B0133FB73E6
:1022D000FB7B082BF1D908213868FFF775FF03460F
:1022E0001A463B6808331B789A4201D0002300E06D
:1022F000012318461437BD4690BD80B582B000AFAB
:1023000078607B68002B01D100232EE07B680022DF
:102310001A727B680022DA607B6800221A827B686E
:1023200000229A747B680022DA747868FFF702FE54
:102330007868FFF79BFE0346002B01D1002314E0D1
:10234000CC217868FFF7FFFE4E217868FFF7FBFE8F
:102350004B217868FFF7F7FE46217868FFF7F3FE18
:102360001F217868FFF7EFFE012318460837BD46A6
:1023700080BD80B582B000AF78607B68002B01D152
:10238000002310E07868FFF771FE0346002B01D1AF
:10239000002308E0CC217868FFF7D5FE4421786857
:1023A000FFF7D1FE012318460837BD4680BD80B532
:1023B00086B000AF786039607B68002B02D03B6844
:1023C000002B01D100232DE007F10C03194678689A
:1023D000FFF753FF0346002B07D17B6800229A7456
:1023E0007B680022DA7400231CE07B7B1BB21B029B
:1023F0001AB23B7B1BB21343FB82B7F91630184667
:10240000FFF71BFF03461A463B681A803B68B3F987
:1024100000207B681A827B6801229A747B68012203
:10242000DA74012318461837BD4680BD80B582B0E6
:1024300000AF786039607B68002B01D1002320E079
:102440007B681B7A002B01D000231AE07868FFF725
:1024500090FF0346002B0AD17B6800229A747B68A8
:102460000022DA747B6800221A72002309E07B687C
:102470003A68DA607B6801221A727B680022DA749B
:10248000012318460837BD4680BD80B584B000AF33
:10249000786039607B68002B22D07B681B7A002B28
:1024A00020D0012B18D17B68DB683A68D31A632BE4
:1024B0001AD907F10E0319467868FFF778FF03462B
:1024C000002B05D17B6800229A747B680022DA74A5
:1024D0007B6800221A7207E07B6800221A7204E00F
:1024E00000BF02E000BF00E000BF1037BD4680BD66
:1024F00080B483B000AF78607B68002B01D10023EB
:1025000006E07B681B7A002B01D0012300E000234A
:1025100018460C37BD465DF8047B704780B483B025
:1025200000AF78607B68002B01D1002301E07B685D
:10253000DB7C18460C37BD465DF8047B704780B4E1
:1025400083B000AF786039607B68002B02D03B68B5
:10255000002B01D100230EE07B689B7C002B01D176
:10256000002308E07B68B3F910203B681A807B6881
:102570000022DA74012318460C37BD465DF8047B4F
:10258000704780B483B000AF78607B68002B01D1C6
:10259000002301E07B689B7C18460C37BD465DF844
:1025A000047B704780B483B000AF786039607B688B
:1025B0003A689A6100BF0C37BD465DF8047B7047EE
:1025C00080B483B000AF786039603B681A047B68E0
:1025D0009A6100BF0C37BD465DF8047B704780B53B
:1025E00082B000AF78607B68002B3FD03220FFF7CD
:1025F00061FB7B6818687B685B680022194600F005
:10260000E9F87B6898687B68DB680022194600F06F
:10261000E1F80321786800F012F90520FFF74AFB82
:102620000321786800F00BF99620FFF757FB032190
:10263000786800F004F99620FFF750FB02217868D3
:1026400000F0FDF89620FFF749FB2821786800F09C
:1026500070F90C21786800F06CF90121786800F0BD
:1026600068F90621786800F064F900E000BF0837D7
:10267000BD4680BD80B584B000AF78600B46FB706E
:102680001346BB707B68002B2DD0786800F089F86A
:1026900003461A46FB78934205D3786800F081F828
:1026A0000346013BFB70786800F062F803461A4667
:1026B000BB78934205D3786800F05AF80346013B93
:1026C000BB70FB78002B02D1BB78FB7302E0BB78B8
:1026D0004033FB73FB7B63F07F03DBB21946786802
:1026E00000F027F900E000BF1037BD4680BD80B57F
:1026F00086B000AFF8600B467A60FB720023FB7572
:10270000FB68002B30D0F86800F032F80346BB7548
:10271000FB7A00221946F868FFF7ACFF0AE0FB7D60
:102720007A6813441B781946F86800F012F9FB7DAB
:102730000133FB75FA7DBB7D9A4210D27B68002B7A
:102740000DD0FB7D7A6813441B78002BE7D106E09F
:102750002021F86800F0FDF8FB7D0133FB75FA7D60
:10276000BB7D9A42F4D300E000BF1837BD4680BD60
:1027700080B483B000AF78607B6893F83030002B72
:1027800004D07B6893F83030282B01D9102302E065
:102790007B6893F8303018460C37BD465DF8047BF3
:1027A000704780B483B000AF78607B6893F83130B5
:1027B000002B04D07B6893F83130042B01D902231D
:1027C00002E07B6893F8313018460C37BD465DF85F
:1027D000047B704780B584B000AFF860B9601346E1
:1027E000FB71FB79012B04D1B968F868FFF7DAFEB9
:1027F00003E0B968F868FFF7E3FE00BF1037BD4695
:1028000080BD80B582B000AF78607B6898687B68D7
:10281000DB6801221946FFF7DDFF3220FFF75EFA81
:102820007B6898687B68DB6800221946FFF7D2FF57
:102830003220FFF753FA00BF0837BD4680BD80B590
:1028400082B000AF78600B46FB70FB7803F00F039B
:10285000FB707B6818697B685969FB7803F001039A
:10286000DBB21A46FFF7B6FF7B6898697B68D969C7
:10287000FB785B08DBB203F00103DBB21A46FFF71B
:10288000A9FF7B68186A7B68596AFB789B08DBB2F2
:1028900003F00103DBB21A46FFF79CFF7B68986ADE
:1028A0007B68D96AFB78DB08DBB203F00103DBB29B
:1028B0001A46FFF78FFF3220FFF710FA7868FFF70C
:1028C000A0FF00BF0837BD4680BD80B582B000AF15
:1028D00078600B46FB701346BB707B6818687B689A
:1028E0005B68BA781946FFF775FF3220FFF7F6F9F3
:1028F000FB781B09DBB219467868FFF7A0FFFB786D
:1029000003F00F03DBB219467868FFF798FFFB78F6
:10291000012B02D0FB78022B03D10520FFF7CAF967
:1029200003E00220FFF7C6F900BF00BF0837BD462D
:1029300080BD80B582B000AF78600B46FB70FB783D
:10294000002219467868FFF7C0FF00BF0837BD4670
:1029500080BD80B582B000AF78600B46FB70FB781D
:10296000012219467868FFF7B0FF00BF0837BD465F
:1029700080BD00000CB430B5184B0C1E1D689DB016
:1029800008DA8B232B604FF0FF301DB0BDE83040DC
:1029900002B070474FF40273ADF814304FF00003EB
:1029A0001B9314BF04F1FF332346049307934FF6A0
:1029B000FF7302900690ADF81630209A21AB02A961
:1029C0002846019300F090F9431CBCBF8B232B6079
:1029D000002CDAD0029B00221A70D6E750000020AB
:1029E000014B1868704700BF5000002070B50D4BB8
:1029F0000D4D5B1B9C100026A64209D100F06EFC19
:102A00000A4D0B4B5B1B9C100026A64205D170BDE6
:102A100055F8043B98470136EEE755F8043B9847D4
:102A20000136F2E7D4330008D4330008D433000869
:102A3000D83300087047704738B50546002941D0A3
:102A400051F8043C0C1F002BB8BFE41800F0E0F86C
:102A50001D4A136833B9636014602846BDE83840E6
:102A600000F0DCB8A34208D9206821188B4201BFCE
:102A700019685B6809182160EDE71A465B680BB1BD
:102A8000A342FAD911685018A0420BD12068014422
:102A9000501883421160E0D118685B6853600844A5
:102AA0001060DAE702D90C232B60D6E720682118E2
:102AB0008B4204BF19685B68636004BF091821601A
:102AC0005460CAE738BD00BF3002002070B50F4E19
:102AD0000C463168054611B900F0ACFB3060214668
:102AE000284600F0A7FB431C03D14FF0FF342046DB
:102AF00070BDC41C24F00304A042F8D0211A28465B
:102B000000F098FB0130F2D1EFE700BF2C0200206B
:102B10002DE9F843CD1C25F0030508350C2D38BFF1
:102B20000C25002D064601DBA94204D90C23336095
:102B30000020BDE8F883DFF8D48000F069F8D8F809
:102B400000301C4644BB29463046FFF7BFFF431CFC
:102B5000044658D1D8F800402746002F43D1002C16
:102B60004BD023683946304604EB030900F062FB82
:102B7000814542D121686D1A29463046FFF7A6FFEC
:102B800001303AD023682B442360D8F800305A68CB
:102B900062BBC8F800700FE02268521B20D40B2AD9
:102BA00017D96119A342256018BF5960636808BF2F
:102BB000C8F8001062514B60304600F02FF804F165
:102BC0000B00231D20F00700C21A1CBF1B1AA350C4
:102BD000AFE76268A3420CBFC8F800205A60EBE779
:102BE00023466468AEE73C467F68B6E71A465B68F2
:102BF000A342FBD100235360DEE70C233360304651
:102C000000F00CF894E70560D6E700BF3002002022
:102C10000148FFF70FBF00BF280200200148FFF75F
:102C20000ABF00BF280200202DE9F0478E681F462A
:102C3000BE4282460C469046334653D8B1F90C004A
:102C400010F4906F2BD065692368096905EB450581
:102C5000A3EB010905EBD5757B1C6D104B44AB4212
:102C60002A4684BF1D462A46430527D511465046AD
:102C7000FFF74EFF064658B321694A4600F0EAFACC
:102C8000A38923F4906343F08003A38126616561E7
:102C90004E44A5EB09052660A5603E463B461F460F
:102CA00020683A46414600F0ABFAA3689B1BA3603C
:102CB00023683B4423600020BDE8F087504600F0C5
:102CC000D7FA06460028E1D121695046FFF7B4FE45
:102CD0000C23CAF80030A38943F04003A3814FF0CE
:102CE000FF30E9E73E46DBE72DE9F0471F468B89D9
:102CF0001B069CB006460D46144610D50B6973B9E9
:102D00004021FFF705FF2860286130B90C233360AC
:102D10004FF0FF301CB0BDE8F08740236B6100230B
:102D2000099320238DF8293003973023654F8DF8C0
:102D30002A304FF001082346994613F8012B0AB1B7
:102D4000252AF9D1B9EB040A0BD05346224629466D
:102D50003046FFF769FF013000F0A480099A524421
:102D6000099299F80030002B00F09C8000234FF06E
:102D7000FF32CDE9052309F10109049307938DF88A
:102D800053301A934C464F4814F8011B0522FDF7A7
:102D900027FA049BD0B9D80644BF20228DF85320CF
:102DA000190744BF2B228DF8532099F800202A2AB6
:102DB00013D0079A4C4600204FF00A0C214611F818
:102DC000013B303B092B49D968B913E0C01B08FA15
:102DD00000F018430490A146D4E7039A111D12682D
:102DE0000391002A01DB079204E0524243F0020300
:102DF0000792049323782E2B0AD163782A2B32D1A1
:102E0000039B1A1D1B68039243EAE3730234059384
:102E1000DFF8C090217803224846FDF7E1F938B188
:102E2000049BA0EB09004022824013430134049329
:102E300014F8011B24488DF828100622FDF7D0F95C
:102E4000002835D0214818BB039B073323F0070324
:102E500008330393099B034409936CE70CFB02328C
:102E60000C460120AAE700230134059319464FF0D0
:102E70000A0C204610F8012B303A092A03D9002BFE
:102E8000C6D00591C4E70CFB012104460123F0E7FD
:102E900003AB00932A460E4B04A93046AFF30080E3
:102EA000421CD7D1AB895B063FF532AF099831E7B9
:102EB00003AB00932A46064B04A9304600F07AF88B
:102EC000EEE700BF98330008A233000800000000BE
:102ED000292C00089E3300082DE9F0471646984635
:102EE0008A680B69DDF820909342B8BF13463360BF
:102EF00091F8432007460C460AB10133336023683A
:102F0000990642BF336802333360256815F0060521
:102F100006D104F1190AE36832689B1AAB4226DC39
:102F200094F843302268003B18BF012392062BD44B
:102F300004F1430241463846C84701301ED0236899
:102F4000226903F00603042B02BFE5683368ED1A1B
:102F5000A3680CBF25EAE57500259342C4BF9B1A00
:102F6000ED1800261A34B5421AD1002008E00123DA
:102F7000524641463846C847013003D14FF0FF3032
:102F8000BDE8F0870135C6E7E1185A1C302081F80A
:102F90004300224494F8451082F843100233C7E7F7
:102FA0000123224641463846C8470130E6D0013663
:102FB000D9E700002DE9F0430D7E85B0782D9046CD
:102FC0000C9E07460C46994601F1430207D8622D34
:102FD0000AD8002D00F0D780582D00F0BC8004F1F5
:102FE000420684F842503BE0A5F16303152BF6D866
:102FF00001A151F823F000BF5130000865300008EE
:10300000DF2F0008DF2F0008DF2F0008DF2F000868
:1030100065300008DF2F0008DF2F0008DF2F0008D1
:10302000DF2F00086D3100088F3000081F310008C5
:10303000DF2F0008DF2F00088F310008DF2F000886
:103040008F300008DF2F0008DF2F0008273100082D
:1030500033681A1D1B68326004F1420684F842305E
:103060000123A1E033682068191D3160060601D5EF
:103070001D6803E04506FBD5B3F90050002D03DAC7
:103080002D236D4284F843305B480A2311E0216808
:103090003368080653F8045B02D4490648BFADB252
:1030A0003360237E54486F2B5CD10823002184F8C1
:1030B00043106668A660002E05DB21682E4321F0D0
:1030C0000401216050D01646B5FBF3F103FB115CFF
:1030D00010F80CC006F801CDAC4663450D46F3D997
:1030E000082B0BD12368DB0708D523696168994257
:1030F000DEBF302306F8013C06F1FF36921B226149
:10310000CDF80090434603AA21463846FFF7E4FE77
:1031100001304ED14FF0FF3005B0BDE8F083236899
:1031200043F0200323603548782584F84550236810
:10313000316813F0800F51F8045B03D113F0400F96
:1031400018BFADB23160D90744BF43F020032360FC
:103150001DB11023AAE72848E7E7236823F02003DE
:103160002360F6E70A23A1E71646B9E73368256826
:103170006169181D30602E061B6801D5196002E0D8
:103180006806FBD51980002323611646B8E733682B
:103190001A1D32601E68626800213046FDF720F873
:1031A00008B1801B606063682361002384F84330AA
:1031B000A6E72369324641463846C8470130A9D0C0
:1031C00023689B0713D4E068039B9842B8BF184656
:1031D000A2E70123324641463846C847013099D01C
:1031E0000135E36803995B1AAB42F2DCEBE700259B
:1031F00004F11906F5E700BFA9330008BA33000847
:10320000884210B501EB020402D98442234607D854
:10321000431EA14207D011F8012B03F8012FF8E754
:103220000244824200D110BD13F8011D02F8011DB5
:10323000F7E7000038B5064D0023044608462B602A
:10324000FDF7B2FC431C02D12B6803B1236038BDEB
:10325000240200200A44914200F1FF3300D170475C
:1032600010B511F8014B03F8014F9142F9D110BD8F
:103270002DE9F041074614460D4621B9BDE8F0415D
:103280001146FFF745BC2AB9FFF7D6FB254628466D
:10329000BDE8F08100F01AF88442064602D8B4EB8B
:1032A000500FF4D821463846FFF732FC804608B963
:1032B0004546ECE7B4422246294628BF3246FFF78E
:1032C000C9FF29463846FFF7B7FBF1E751F8043C40
:1032D000181F002BBCBF0B58C0187047F8B500BFB3
:1032E000F8BC08BC9E467047F8B500BFF8BC08BCE7
:0432F0009E4670473F
:1032F400543A2530326443207C20534C45455000D9
:10330400543A2D2D43207C20534C45455000000059
:103314004D4F4E49544F52204F4E4C59000000001F
:103324003E53455400000000543A25303264432093
:103334007C25733A2530326443000000543A2D2D25
:1033440043207C25733A25303264430055502F4482
:103354004E207C205345543D4F4B00002053455490
:10336400000000004155544F20207C2046414E3A35
:103374004F4E00004155544F20207C2046414E3A88
:103384004F46460000000000000000000102030454
:1033940006070809232D302B2000686C4C00656655
:1033A4006745464700303132333435363738394192
:1033B40042434445460030313233343536373839A8
:0833C4006162636465660000AC
:0833CC0014CEFF7F0100000098
:0433D400C501000827
:0433D800A101000847
:1033DC000024F4001C001C0000000240020000004D
:1033EC00000000000000000000000000000402408B
:1033FC000001000000040240000200000004024032
:10340C0000100000000402400020000000040240F4
:10341C000040000000040240008000001002000088
:10342C005400002000000000EC000020540100209B
:10343C00BC010020000000000000000000000000A3
:10344C000000000000000000000000000000000070
:10345C000000000000000000000000000000000060
:10346C000000000000000000000000000000000050
:0400000508000D25BD
:00000001FF
